{
  "contractName": "CampaignManager",
  "abi": [
    {
      "inputs": [
        {
          "internalType": "uint256",
          "name": "_fee",
          "type": "uint256"
        }
      ],
      "stateMutability": "nonpayable",
      "type": "constructor"
    },
    {
      "inputs": [
        {
          "internalType": "uint256",
          "name": "",
          "type": "uint256"
        }
      ],
      "name": "campaigns",
      "outputs": [
        {
          "internalType": "contract Campaign",
          "name": "",
          "type": "address"
        }
      ],
      "stateMutability": "view",
      "type": "function",
      "constant": true
    },
    {
      "inputs": [],
      "name": "campaignsCount",
      "outputs": [
        {
          "internalType": "uint256",
          "name": "",
          "type": "uint256"
        }
      ],
      "stateMutability": "view",
      "type": "function",
      "constant": true
    },
    {
      "inputs": [],
      "name": "fee",
      "outputs": [
        {
          "internalType": "uint256",
          "name": "",
          "type": "uint256"
        }
      ],
      "stateMutability": "view",
      "type": "function",
      "constant": true
    },
    {
      "inputs": [],
      "name": "isOwner",
      "outputs": [
        {
          "internalType": "bool",
          "name": "",
          "type": "bool"
        }
      ],
      "stateMutability": "view",
      "type": "function",
      "constant": true
    },
    {
      "inputs": [],
      "name": "owner",
      "outputs": [
        {
          "internalType": "address",
          "name": "",
          "type": "address"
        }
      ],
      "stateMutability": "view",
      "type": "function",
      "constant": true
    },
    {
      "inputs": [
        {
          "internalType": "uint256",
          "name": "_fee",
          "type": "uint256"
        }
      ],
      "name": "setFee",
      "outputs": [],
      "stateMutability": "nonpayable",
      "type": "function"
    },
    {
      "inputs": [
        {
          "internalType": "string",
          "name": "_name",
          "type": "string"
        },
        {
          "internalType": "uint256",
          "name": "_dueDate",
          "type": "uint256"
        },
        {
          "internalType": "uint256",
          "name": "_donationFee",
          "type": "uint256"
        },
        {
          "internalType": "uint256",
          "name": "_prizePoolFee",
          "type": "uint256"
        },
        {
          "internalType": "uint256",
          "name": "_minDonation",
          "type": "uint256"
        },
        {
          "internalType": "uint256",
          "name": "_maxDonation",
          "type": "uint256"
        }
      ],
      "name": "createCampaign",
      "outputs": [],
      "stateMutability": "payable",
      "type": "function",
      "payable": true
    },
    {
      "inputs": [
        {
          "internalType": "address",
          "name": "_address",
          "type": "address"
        },
        {
          "internalType": "uint256",
          "name": "_sum",
          "type": "uint256"
        }
      ],
      "name": "withdraw",
      "outputs": [],
      "stateMutability": "payable",
      "type": "function",
      "payable": true
    }
  ],
  "bytecode": "0x608060405234801561001057600080fd5b50604051614dd9380380614dd983398181016040528101906100329190610096565b33806000806101000a81548173ffffffffffffffffffffffffffffffffffffffff021916908373ffffffffffffffffffffffffffffffffffffffff1602179055505080600181905550506100e0565b600081519050610090816100c9565b92915050565b6000602082840312156100a857600080fd5b60006100b684828501610081565b91505092915050565b6000819050919050565b6100d2816100bf565b81146100dd57600080fd5b50565b614cea806100ef6000396000f3fe608060405260043610620000865760003560e01c80638f32d59b11620000555780638f32d59b146200015d578063d5a622d8146200018d578063ddca3f4314620001ad578063f3fef3a314620001dd5762000086565b8063141961bc146200008b57806344c89b6514620000cf57806369fe0e2d14620000ff5780638da5cb5b146200012d575b600080fd5b3480156200009857600080fd5b50620000b76004803603810190620000b19190620006ff565b620001fd565b604051620000c691906200090a565b60405180910390f35b348015620000dc57600080fd5b50620000e76200023d565b604051620000f69190620009af565b60405180910390f35b3480156200010c57600080fd5b506200012b6004803603810190620001259190620006ff565b62000243565b005b3480156200013a57600080fd5b506200014562000299565b6040516200015491906200084c565b60405180910390f35b3480156200016a57600080fd5b5062000175620002bd565b604051620001849190620008ed565b60405180910390f35b620001ab6004803603810190620001a5919062000650565b62000314565b005b348015620001ba57600080fd5b50620001c56200042b565b604051620001d49190620009af565b60405180910390f35b620001fb6004803603810190620001f591906200060f565b62000431565b005b600381815481106200020e57600080fd5b906000526020600020016000915054906101000a900473ffffffffffffffffffffffffffffffffffffffff1681565b60025481565b6200024d620002bd565b6200028f576040517f08c379a000000000000000000000000000000000000000000000000000000000815260040162000286906200098d565b60405180910390fd5b8060018190555050565b60008054906101000a900473ffffffffffffffffffffffffffffffffffffffff1681565b60008060009054906101000a900473ffffffffffffffffffffffffffffffffffffffff1673ffffffffffffffffffffffffffffffffffffffff163373ffffffffffffffffffffffffffffffffffffffff1614905090565b6001543410156200035c576040517f08c379a0000000000000000000000000000000000000000000000000000000008152600401620003539062000949565b60405180910390fd5b600033878787878787604051620003739062000561565b62000385979695949392919062000869565b604051809103906000f080158015620003a2573d6000803e3d6000fd5b5090506003819080600181540180825580915050600190039060005260206000200160009091909190916101000a81548173ffffffffffffffffffffffffffffffffffffffff021916908373ffffffffffffffffffffffffffffffffffffffff160217905550600260008154809291906200041d9062000b34565b919050555050505050505050565b60015481565b6200043b620002bd565b6200047d576040517f08c379a000000000000000000000000000000000000000000000000000000000815260040162000474906200098d565b60405180910390fd5b600047905080821115620004c8576040517f08c379a0000000000000000000000000000000000000000000000000000000008152600401620004bf906200096b565b60405180910390fd5b600081116200050e576040517f08c379a0000000000000000000000000000000000000000000000000000000008152600401620005059062000927565b60405180910390fd5b60008390508073ffffffffffffffffffffffffffffffffffffffff166108fc849081150290604051600060405180830381858888f193505050501580156200055a573d6000803e3d6000fd5b5050505050565b613feb8062000cca83390190565b6000620005866200058084620009f5565b620009cc565b9050828152602081018484840111156200059f57600080fd5b620005ac84828562000ab9565b509392505050565b600081359050620005c58162000c95565b92915050565b600082601f830112620005dd57600080fd5b8135620005ef8482602086016200056f565b91505092915050565b600081359050620006098162000caf565b92915050565b600080604083850312156200062357600080fd5b60006200063385828601620005b4565b92505060206200064685828601620005f8565b9150509250929050565b60008060008060008060c087890312156200066a57600080fd5b600087013567ffffffffffffffff8111156200068557600080fd5b6200069389828a01620005cb565b9650506020620006a689828a01620005f8565b9550506040620006b989828a01620005f8565b9450506060620006cc89828a01620005f8565b9350506080620006df89828a01620005f8565b92505060a0620006f289828a01620005f8565b9150509295509295509295565b6000602082840312156200071257600080fd5b60006200072284828501620005f8565b91505092915050565b620007368162000a47565b82525050565b620007478162000a5b565b82525050565b620007588162000a91565b82525050565b60006200076b8262000a2b565b62000777818562000a36565b93506200078981856020860162000ac8565b620007948162000be0565b840191505092915050565b6000620007ae60148362000a36565b9150620007bb8262000bf1565b602082019050919050565b6000620007d5601c8362000a36565b9150620007e28262000c1a565b602082019050919050565b6000620007fc60138362000a36565b9150620008098262000c43565b602082019050919050565b60006200082360148362000a36565b9150620008308262000c6c565b602082019050919050565b620008468162000a87565b82525050565b60006020820190506200086360008301846200072b565b92915050565b600060e08201905062000880600083018a6200072b565b81810360208301526200089481896200075e565b9050620008a560408301886200083b565b620008b460608301876200083b565b620008c360808301866200083b565b620008d260a08301856200083b565b620008e160c08301846200083b565b98975050505050505050565b60006020820190506200090460008301846200073c565b92915050565b60006020820190506200092160008301846200074d565b92915050565b6000602082019050818103600083015262000942816200079f565b9050919050565b600060208201905081810360008301526200096481620007c6565b9050919050565b600060208201905081810360008301526200098681620007ed565b9050919050565b60006020820190508181036000830152620009a88162000814565b9050919050565b6000602082019050620009c660008301846200083b565b92915050565b6000620009d8620009eb565b9050620009e6828262000afe565b919050565b6000604051905090565b600067ffffffffffffffff82111562000a135762000a1262000bb1565b5b62000a1e8262000be0565b9050602081019050919050565b600081519050919050565b600082825260208201905092915050565b600062000a548262000a67565b9050919050565b60008115159050919050565b600073ffffffffffffffffffffffffffffffffffffffff82169050919050565b6000819050919050565b600062000a9e8262000aa5565b9050919050565b600062000ab28262000a67565b9050919050565b82818337600083830152505050565b60005b8381101562000ae857808201518184015260208101905062000acb565b8381111562000af8576000848401525b50505050565b62000b098262000be0565b810181811067ffffffffffffffff8211171562000b2b5762000b2a62000bb1565b5b80604052505050565b600062000b418262000a87565b91507fffffffffffffffffffffffffffffffffffffffffffffffffffffffffffffffff82141562000b775762000b7662000b82565b5b600182019050919050565b7f4e487b7100000000000000000000000000000000000000000000000000000000600052601160045260246000fd5b7f4e487b7100000000000000000000000000000000000000000000000000000000600052604160045260246000fd5b6000601f19601f8301169050919050565b7f4e6f7468696e6720746f20776974686472617721000000000000000000000000600082015250565b7f596f752073686f756c642073656e642074686520726571756972656400000000600082015250565b7f496e73756666696369656e742066756e64732100000000000000000000000000600082015250565b7f596f7520617265206e6f7420616c6c6f77656421000000000000000000000000600082015250565b62000ca08162000a47565b811462000cac57600080fd5b50565b62000cba8162000a87565b811462000cc657600080fd5b5056fe60806040523480156200001157600080fd5b5060405162003feb38038062003feb83398181016040528101906200003791906200035b565b86806000806101000a81548173ffffffffffffffffffffffffffffffffffffffff021916908373ffffffffffffffffffffffffffffffffffffffff160217905550508560019080519060200190620000919291906200020b565b5084600281905550620000aa846200011360201b60201c565b620000bb836200016360201b60201c565b620000cd8282620001b360201b60201c565b7f07a9c134c6ed9c353773b355c69cbf65e34e3c3820554f5b8e1afdecdfb4029230604051620000fe9190620004a7565b60405180910390a1505050505050506200080a565b6064811062000159576040517f08c379a00000000000000000000000000000000000000000000000000000000081526004016200015090620004c4565b60405180910390fd5b8060038190555050565b60648110620001a9576040517f08c379a0000000000000000000000000000000000000000000000000000000008152600401620001a09062000508565b60405180910390fd5b8060048190555050565b80821115620001f9576040517f08c379a0000000000000000000000000000000000000000000000000000000008152600401620001f090620004e6565b60405180910390fd5b81600581905550806006819055505050565b82805462000219906200060e565b90600052602060002090601f0160209004810192826200023d576000855562000289565b82601f106200025857805160ff191683800117855562000289565b8280016001018555821562000289579182015b82811115620002885782518255916020019190600101906200026b565b5b5090506200029891906200029c565b5090565b5b80821115620002b75760008160009055506001016200029d565b5090565b6000620002d2620002cc8462000553565b6200052a565b905082815260208101848484011115620002eb57600080fd5b620002f8848285620005d8565b509392505050565b6000815190506200031181620007d6565b92915050565b600082601f8301126200032957600080fd5b81516200033b848260208601620002bb565b91505092915050565b6000815190506200035581620007f0565b92915050565b600080600080600080600060e0888a0312156200037757600080fd5b6000620003878a828b0162000300565b975050602088015167ffffffffffffffff811115620003a557600080fd5b620003b38a828b0162000317565b9650506040620003c68a828b0162000344565b9550506060620003d98a828b0162000344565b9450506080620003ec8a828b0162000344565b93505060a0620003ff8a828b0162000344565b92505060c0620004128a828b0162000344565b91505092959891949750929550565b6200042c816200059a565b82525050565b600062000441602b8362000589565b91506200044e82620006e9565b604082019050919050565b60006200046860398362000589565b9150620004758262000738565b604082019050919050565b60006200048f602d8362000589565b91506200049c8262000787565b604082019050919050565b6000602082019050620004be600083018462000421565b92915050565b60006020820190508181036000830152620004df8162000432565b9050919050565b60006020820190508181036000830152620005018162000459565b9050919050565b60006020820190508181036000830152620005238162000480565b9050919050565b60006200053662000549565b905062000544828262000644565b919050565b6000604051905090565b600067ffffffffffffffff821115620005715762000570620006a9565b5b6200057c82620006d8565b9050602081019050919050565b600082825260208201905092915050565b6000620005a782620005ae565b9050919050565b600073ffffffffffffffffffffffffffffffffffffffff82169050919050565b6000819050919050565b60005b83811015620005f8578082015181840152602081019050620005db565b8381111562000608576000848401525b50505050565b600060028204905060018216806200062757607f821691505b602082108114156200063e576200063d6200067a565b5b50919050565b6200064f82620006d8565b810181811067ffffffffffffffff82111715620006715762000670620006a9565b5b80604052505050565b7f4e487b7100000000000000000000000000000000000000000000000000000000600052602260045260246000fd5b7f4e487b7100000000000000000000000000000000000000000000000000000000600052604160045260246000fd5b6000601f19601f8301169050919050565b7f446f6e6174696f6e206665652073686f756c6420626520736d616c6c6572207460008201527f68616e2031303020282529000000000000000000000000000000000000000000602082015250565b7f4d696e696d616c20646f6e6174696f6e2073686f756c6420626520736d616c6c60008201527f6572207468616e206d6178696d616c20646f6e6174696f6e2100000000000000602082015250565b7f5072697a6520706f6f6c206665652073686f756c6420626520736d616c6c657260008201527f207468616e203130302028252900000000000000000000000000000000000000602082015250565b620007e1816200059a565b8114620007ed57600080fd5b50565b620007fb81620005ce565b81146200080757600080fd5b50565b6137d1806200081a6000396000f3fe6080604052600436106101a05760003560e01c80638f32d59b116100ec578063c47f00271161008a578063e7fcef3c11610064578063e7fcef3c146105dc578063e9fd5f7714610619578063ec91ef0b14610635578063ec9d25571461065e576101e0565b8063c47f00271461055f578063cbf2181f14610588578063e0a0da43146105b3576101e0565b8063a8681fd9116100c6578063a8681fd914610491578063aec2ccae146104bc578063b1b95724146104f9578063c427643d14610536576101e0565b80638f32d59b14610414578063a1b1d3af1461043f578063a5d8b65014610468576101e0565b80633477ee2e11610159578063719ce73e11610133578063719ce73e1461036a578063786716fe146103955780637d75a438146103c05780638da5cb5b146103e9576101e0565b80633477ee2e146102d45780633d082266146103165780634a2a84c514610341576101e0565b80630121b93f146101e557806305e1b1151461020e57806306fdde031461022a5780631c0e0225146102555780631cf85b9b146102805780632d35a8a2146102a9576101e0565b366101e057606460045460646101b691906130ac565b346101c19190613052565b6101cb9190613021565b6007546101d89190612fcb565b600781905550005b600080fd5b3480156101f157600080fd5b5061020c600480360381019061020791906127e7565b610687565b005b610228600480360381019061022391906127e7565b610a3c565b005b34801561023657600080fd5b5061023f610ea0565b60405161024c9190612c34565b60405180910390f35b34801561026157600080fd5b5061026a610f2e565b6040516102779190612ed6565b60405180910390f35b34801561028c57600080fd5b506102a760048036038101906102a291906127e7565b610f34565b005b3480156102b557600080fd5b506102be610f87565b6040516102cb9190612ed6565b60405180910390f35b3480156102e057600080fd5b506102fb60048036038101906102f691906127e7565b610f8d565b60405161030d96959493929190612ef1565b60405180910390f35b34801561032257600080fd5b5061032b61109e565b6040516103389190612ed6565b60405180910390f35b34801561034d57600080fd5b5061036860048036038101906103639190612793565b6110a4565b005b34801561037657600080fd5b5061037f611259565b60405161038c9190612ed6565b60405180910390f35b3480156103a157600080fd5b506103aa61125f565b6040516103b79190612ed6565b60405180910390f35b3480156103cc57600080fd5b506103e760048036038101906103e291906127e7565b611265565b005b3480156103f557600080fd5b506103fe611589565b60405161040b9190612bfe565b60405180910390f35b34801561042057600080fd5b506104296115ad565b6040516104369190612c19565b60405180910390f35b34801561044b57600080fd5b50610466600480360381019061046191906127e7565b611604565b005b34801561047457600080fd5b5061048f600480360381019061048a91906127e7565b611927565b005b34801561049d57600080fd5b506104a6611978565b6040516104b39190612ed6565b60405180910390f35b3480156104c857600080fd5b506104e360048036038101906104de9190612729565b61197e565b6040516104f09190612c19565b60405180910390f35b34801561050557600080fd5b50610520600480360381019061051b9190612729565b61199e565b60405161052d9190612c19565b60405180910390f35b34801561054257600080fd5b5061055d60048036038101906105589190612810565b6119be565b005b34801561056b57600080fd5b5061058660048036038101906105819190612752565b611dc2565b005b34801561059457600080fd5b5061059d611e23565b6040516105aa9190612ed6565b60405180910390f35b3480156105bf57600080fd5b506105da60048036038101906105d5919061284c565b611e29565b005b3480156105e857600080fd5b5061060360048036038101906105fe9190612729565b6120bd565b6040516106109190612c19565b60405180910390f35b610633600480360381019061062e91906127e7565b6120dd565b005b34801561064157600080fd5b5061065c600480360381019061065791906127e7565b612363565b005b34801561066a57600080fd5b50610685600480360381019061068091906128a0565b6123b6565b005b60025442106106cb576040517f08c379a00000000000000000000000000000000000000000000000000000000081526004016106c290612c96565b60405180910390fd5b80600954811115610711576040517f08c379a000000000000000000000000000000000000000000000000000000000815260040161070890612dd6565b60405180910390fd5b600b60003373ffffffffffffffffffffffffffffffffffffffff1673ffffffffffffffffffffffffffffffffffffffff16815260200190815260200160002060009054906101000a900460ff161561079e576040517f08c379a000000000000000000000000000000000000000000000000000000000815260040161079590612d36565b60405180910390fd5b6000600860008481526020019081526020016000206040518060c0016040529081600082015481526020016001820180546107d89061316a565b80601f01602080910402602001604051908101604052809291908181526020018280546108049061316a565b80156108515780601f1061082657610100808354040283529160200191610851565b820191906000526020600020905b81548152906001019060200180831161083457829003601f168201915b50505050508152602001600282015481526020016003820160009054906101000a900460ff161515151581526020016003820160019054906101000a900473ffffffffffffffffffffffffffffffffffffffff1673ffffffffffffffffffffffffffffffffffffffff1673ffffffffffffffffffffffffffffffffffffffff1681526020016004820160009054906101000a900473ffffffffffffffffffffffffffffffffffffffff1673ffffffffffffffffffffffffffffffffffffffff1673ffffffffffffffffffffffffffffffffffffffff168152505090508060600151610971576040517f08c379a000000000000000000000000000000000000000000000000000000000815260040161096890612db6565b60405180910390fd5b6001600b60003373ffffffffffffffffffffffffffffffffffffffff1673ffffffffffffffffffffffffffffffffffffffff16815260200190815260200160002060006101000a81548160ff0219169083151502179055508060400180518091906109db906131cd565b815250506109e9838261240b565b600d5481604001511115610a0f578060400151600d819055506001600e81905550610a37565b600d5481604001511415610a3657600e6000815480929190610a30906131cd565b91905055505b5b505050565b6002544211610a80576040517f08c379a0000000000000000000000000000000000000000000000000000000008152600401610a7790612d56565b60405180910390fd5b60016009541015610ac6576040517f08c379a0000000000000000000000000000000000000000000000000000000008152600401610abd90612e36565b60405180910390fd5b60006007541015610b0c576040517f08c379a0000000000000000000000000000000000000000000000000000000008152600401610b0390612c76565b60405180910390fd5b6000600860008381526020019081526020016000206040518060c001604052908160008201548152602001600182018054610b469061316a565b80601f0160208091040260200160405190810160405280929190818152602001828054610b729061316a565b8015610bbf5780601f10610b9457610100808354040283529160200191610bbf565b820191906000526020600020905b815481529060010190602001808311610ba257829003601f168201915b50505050508152602001600282015481526020016003820160009054906101000a900460ff161515151581526020016003820160019054906101000a900473ffffffffffffffffffffffffffffffffffffffff1673ffffffffffffffffffffffffffffffffffffffff1673ffffffffffffffffffffffffffffffffffffffff1681526020016004820160009054906101000a900473ffffffffffffffffffffffffffffffffffffffff1673ffffffffffffffffffffffffffffffffffffffff1673ffffffffffffffffffffffffffffffffffffffff16815250509050806080015173ffffffffffffffffffffffffffffffffffffffff163373ffffffffffffffffffffffffffffffffffffffff1614610d0d576040517f08c379a0000000000000000000000000000000000000000000000000000000008152600401610d0490612d16565b60405180910390fd5b600d54816040015114610d55576040517f08c379a0000000000000000000000000000000000000000000000000000000008152600401610d4c90612cf6565b60405180910390fd5b600f60003373ffffffffffffffffffffffffffffffffffffffff1673ffffffffffffffffffffffffffffffffffffffff16815260200190815260200160002060009054906101000a900460ff1615610de2576040517f08c379a0000000000000000000000000000000000000000000000000000000008152600401610dd990612eb6565b60405180910390fd5b6000600e54600754610df49190613021565b905060003390506001600f60003373ffffffffffffffffffffffffffffffffffffffff1673ffffffffffffffffffffffffffffffffffffffff16815260200190815260200160002060006101000a81548160ff0219169083151502179055508073ffffffffffffffffffffffffffffffffffffffff166108fc839081150290604051600060405180830381858888f19350505050158015610e99573d6000803e3d6000fd5b5050505050565b60018054610ead9061316a565b80601f0160208091040260200160405190810160405280929190818152602001828054610ed99061316a565b8015610f265780601f10610efb57610100808354040283529160200191610f26565b820191906000526020600020905b815481529060010190602001808311610f0957829003601f168201915b505050505081565b60055481565b610f3c6115ad565b610f7b576040517f08c379a0000000000000000000000000000000000000000000000000000000008152600401610f7290612e96565b60405180910390fd5b610f8481612505565b50565b60095481565b6008602052806000526040600020600091509050806000015490806001018054610fb69061316a565b80601f0160208091040260200160405190810160405280929190818152602001828054610fe29061316a565b801561102f5780601f106110045761010080835404028352916020019161102f565b820191906000526020600020905b81548152906001019060200180831161101257829003601f168201915b5050505050908060020154908060030160009054906101000a900460ff16908060030160019054906101000a900473ffffffffffffffffffffffffffffffffffffffff16908060040160009054906101000a900473ffffffffffffffffffffffffffffffffffffffff16905086565b60035481565b60025442106110e8576040517f08c379a00000000000000000000000000000000000000000000000000000000081526004016110df90612c96565b60405180910390fd5b600a60008273ffffffffffffffffffffffffffffffffffffffff1673ffffffffffffffffffffffffffffffffffffffff16815260200190815260200160002060009054906101000a900460ff1615611175576040517f08c379a000000000000000000000000000000000000000000000000000000000815260040161116c90612e76565b60405180910390fd5b60096000815480929190611188906131cd565b919050555060006040518060c001604052806009548152602001848152602001600081526020016001151581526020018373ffffffffffffffffffffffffffffffffffffffff1681526020013373ffffffffffffffffffffffffffffffffffffffff1681525090506111fc6009548261240b565b6001600a60008473ffffffffffffffffffffffffffffffffffffffff1673ffffffffffffffffffffffffffffffffffffffff16815260200190815260200160002060006101000a81548160ff021916908315150217905550505050565b60075481565b60025481565b60025442106112a9576040517f08c379a00000000000000000000000000000000000000000000000000000000081526004016112a090612c96565b60405180910390fd5b806009548111156112ef576040517f08c379a00000000000000000000000000000000000000000000000000000000081526004016112e690612dd6565b60405180910390fd5b816008600082815260200190815260200160002060040160009054906101000a900473ffffffffffffffffffffffffffffffffffffffff1673ffffffffffffffffffffffffffffffffffffffff163373ffffffffffffffffffffffffffffffffffffffff1614611394576040517f08c379a000000000000000000000000000000000000000000000000000000000815260040161138b90612d96565b60405180910390fd5b6000600860008581526020019081526020016000206040518060c0016040529081600082015481526020016001820180546113ce9061316a565b80601f01602080910402602001604051908101604052809291908181526020018280546113fa9061316a565b80156114475780601f1061141c57610100808354040283529160200191611447565b820191906000526020600020905b81548152906001019060200180831161142a57829003601f168201915b50505050508152602001600282015481526020016003820160009054906101000a900460ff161515151581526020016003820160019054906101000a900473ffffffffffffffffffffffffffffffffffffffff1673ffffffffffffffffffffffffffffffffffffffff1673ffffffffffffffffffffffffffffffffffffffff1681526020016004820160009054906101000a900473ffffffffffffffffffffffffffffffffffffffff1673ffffffffffffffffffffffffffffffffffffffff1673ffffffffffffffffffffffffffffffffffffffff16815250509050806060015115611568576040517f08c379a000000000000000000000000000000000000000000000000000000000815260040161155f90612e16565b60405180910390fd5b6001816060019015159081151581525050611583848261240b565b50505050565b60008054906101000a900473ffffffffffffffffffffffffffffffffffffffff1681565b60008060009054906101000a900473ffffffffffffffffffffffffffffffffffffffff1673ffffffffffffffffffffffffffffffffffffffff163373ffffffffffffffffffffffffffffffffffffffff1614905090565b6002544210611648576040517f08c379a000000000000000000000000000000000000000000000000000000000815260040161163f90612c96565b60405180910390fd5b8060095481111561168e576040517f08c379a000000000000000000000000000000000000000000000000000000000815260040161168590612dd6565b60405180910390fd5b816008600082815260200190815260200160002060040160009054906101000a900473ffffffffffffffffffffffffffffffffffffffff1673ffffffffffffffffffffffffffffffffffffffff163373ffffffffffffffffffffffffffffffffffffffff1614611733576040517f08c379a000000000000000000000000000000000000000000000000000000000815260040161172a90612d96565b60405180910390fd5b6000600860008581526020019081526020016000206040518060c00160405290816000820154815260200160018201805461176d9061316a565b80601f01602080910402602001604051908101604052809291908181526020018280546117999061316a565b80156117e65780601f106117bb576101008083540402835291602001916117e6565b820191906000526020600020905b8154815290600101906020018083116117c957829003601f168201915b50505050508152602001600282015481526020016003820160009054906101000a900460ff161515151581526020016003820160019054906101000a900473ffffffffffffffffffffffffffffffffffffffff1673ffffffffffffffffffffffffffffffffffffffff1673ffffffffffffffffffffffffffffffffffffffff1681526020016004820160009054906101000a900473ffffffffffffffffffffffffffffffffffffffff1673ffffffffffffffffffffffffffffffffffffffff1673ffffffffffffffffffffffffffffffffffffffff168152505090508060600151611906576040517f08c379a00000000000000000000000000000000000000000000000000000000081526004016118fd90612df6565b60405180910390fd5b6000816060019015159081151581525050611921848261240b565b50505050565b61192f6115ad565b61196e576040517f08c379a000000000000000000000000000000000000000000000000000000000815260040161196590612e96565b60405180910390fd5b8060028190555050565b60065481565b600b6020528060005260406000206000915054906101000a900460ff1681565b600a6020528060005260406000206000915054906101000a900460ff1681565b81600954811115611a04576040517f08c379a00000000000000000000000000000000000000000000000000000000081526004016119fb90612dd6565b60405180910390fd5b826008600082815260200190815260200160002060040160009054906101000a900473ffffffffffffffffffffffffffffffffffffffff1673ffffffffffffffffffffffffffffffffffffffff163373ffffffffffffffffffffffffffffffffffffffff1614611aa9576040517f08c379a0000000000000000000000000000000000000000000000000000000008152600401611aa090612d96565b60405180910390fd5b600a60008473ffffffffffffffffffffffffffffffffffffffff1673ffffffffffffffffffffffffffffffffffffffff16815260200190815260200160002060009054906101000a900460ff1615611b36576040517f08c379a0000000000000000000000000000000000000000000000000000000008152600401611b2d90612e76565b60405180910390fd5b6000600860008681526020019081526020016000206040518060c001604052908160008201548152602001600182018054611b709061316a565b80601f0160208091040260200160405190810160405280929190818152602001828054611b9c9061316a565b8015611be95780601f10611bbe57610100808354040283529160200191611be9565b820191906000526020600020905b815481529060010190602001808311611bcc57829003601f168201915b50505050508152602001600282015481526020016003820160009054906101000a900460ff161515151581526020016003820160019054906101000a900473ffffffffffffffffffffffffffffffffffffffff1673ffffffffffffffffffffffffffffffffffffffff1673ffffffffffffffffffffffffffffffffffffffff1681526020016004820160009054906101000a900473ffffffffffffffffffffffffffffffffffffffff1673ffffffffffffffffffffffffffffffffffffffff1673ffffffffffffffffffffffffffffffffffffffff168152505090506000600a6000836080015173ffffffffffffffffffffffffffffffffffffffff1673ffffffffffffffffffffffffffffffffffffffff16815260200190815260200160002060006101000a81548160ff02191690831515021790555083816080019073ffffffffffffffffffffffffffffffffffffffff16908173ffffffffffffffffffffffffffffffffffffffff1681525050611d63858261240b565b6001600a60008673ffffffffffffffffffffffffffffffffffffffff1673ffffffffffffffffffffffffffffffffffffffff16815260200190815260200160002060006101000a81548160ff0219169083151502179055505050505050565b611dca6115ad565b611e09576040517f08c379a0000000000000000000000000000000000000000000000000000000008152600401611e0090612e96565b60405180910390fd5b8060019080519060200190611e1f9291906125f4565b5050565b60045481565b81600954811115611e6f576040517f08c379a0000000000000000000000000000000000000000000000000000000008152600401611e6690612dd6565b60405180910390fd5b826008600082815260200190815260200160002060040160009054906101000a900473ffffffffffffffffffffffffffffffffffffffff1673ffffffffffffffffffffffffffffffffffffffff163373ffffffffffffffffffffffffffffffffffffffff1614611f14576040517f08c379a0000000000000000000000000000000000000000000000000000000008152600401611f0b90612d96565b60405180910390fd5b6000600860008681526020019081526020016000206040518060c001604052908160008201548152602001600182018054611f4e9061316a565b80601f0160208091040260200160405190810160405280929190818152602001828054611f7a9061316a565b8015611fc75780601f10611f9c57610100808354040283529160200191611fc7565b820191906000526020600020905b815481529060010190602001808311611faa57829003601f168201915b50505050508152602001600282015481526020016003820160009054906101000a900460ff161515151581526020016003820160019054906101000a900473ffffffffffffffffffffffffffffffffffffffff1673ffffffffffffffffffffffffffffffffffffffff1673ffffffffffffffffffffffffffffffffffffffff1681526020016004820160009054906101000a900473ffffffffffffffffffffffffffffffffffffffff1673ffffffffffffffffffffffffffffffffffffffff1673ffffffffffffffffffffffffffffffffffffffff168152505090508381602001819052506120b6858261240b565b5050505050565b600f6020528060005260406000206000915054906101000a900460ff1681565b80600954811115612123576040517f08c379a000000000000000000000000000000000000000000000000000000000815260040161211a90612dd6565b60405180910390fd5b6005543410158015612181575060065434600c60003373ffffffffffffffffffffffffffffffffffffffff1673ffffffffffffffffffffffffffffffffffffffff1681526020019081526020016000205461217e9190612fcb565b11155b6121c0576040517f08c379a00000000000000000000000000000000000000000000000000000000081526004016121b790612cd6565b60405180910390fd5b6008600083815260200190815260200160002060030160009054906101000a900460ff16612223576040517f08c379a000000000000000000000000000000000000000000000000000000000815260040161221a90612cb6565b60405180910390fd5b60006008600084815260200190815260200160002060030160019054906101000a900473ffffffffffffffffffffffffffffffffffffffff16905034600c60003373ffffffffffffffffffffffffffffffffffffffff1673ffffffffffffffffffffffffffffffffffffffff168152602001908152602001600020546122a99190612fcb565b600c60003373ffffffffffffffffffffffffffffffffffffffff1673ffffffffffffffffffffffffffffffffffffffff16815260200190815260200160002081905550600060035460646122fd91906130ac565b60643461230a9190613021565b6123149190613052565b90508173ffffffffffffffffffffffffffffffffffffffff166108fc829081150290604051600060405180830381858888f1935050505015801561235c573d6000803e3d6000fd5b5050505050565b61236b6115ad565b6123aa576040517f08c379a00000000000000000000000000000000000000000000000000000000081526004016123a190612e96565b60405180910390fd5b6123b381612552565b50565b6123be6115ad565b6123fd576040517f08c379a00000000000000000000000000000000000000000000000000000000081526004016123f490612e96565b60405180910390fd5b612407828261259f565b5050565b80600860008481526020019081526020016000206000820151816000015560208201518160010190805190602001906124459291906125f4565b506040820151816002015560608201518160030160006101000a81548160ff02191690831515021790555060808201518160030160016101000a81548173ffffffffffffffffffffffffffffffffffffffff021916908373ffffffffffffffffffffffffffffffffffffffff16021790555060a08201518160040160006101000a81548173ffffffffffffffffffffffffffffffffffffffff021916908373ffffffffffffffffffffffffffffffffffffffff1602179055509050505050565b60648110612548576040517f08c379a000000000000000000000000000000000000000000000000000000000815260040161253f90612c56565b60405180910390fd5b8060038190555050565b60648110612595576040517f08c379a000000000000000000000000000000000000000000000000000000000815260040161258c90612e56565b60405180910390fd5b8060048190555050565b808211156125e2576040517f08c379a00000000000000000000000000000000000000000000000000000000081526004016125d990612d76565b60405180910390fd5b81600581905550806006819055505050565b8280546126009061316a565b90600052602060002090601f0160209004810192826126225760008555612669565b82601f1061263b57805160ff1916838001178555612669565b82800160010185558215612669579182015b8281111561266857825182559160200191906001019061264d565b5b509050612676919061267a565b5090565b5b8082111561269357600081600090555060010161267b565b5090565b60006126aa6126a584612f7e565b612f59565b9050828152602081018484840111156126c257600080fd5b6126cd848285613128565b509392505050565b6000813590506126e48161376d565b92915050565b600082601f8301126126fb57600080fd5b813561270b848260208601612697565b91505092915050565b60008135905061272381613784565b92915050565b60006020828403121561273b57600080fd5b6000612749848285016126d5565b91505092915050565b60006020828403121561276457600080fd5b600082013567ffffffffffffffff81111561277e57600080fd5b61278a848285016126ea565b91505092915050565b600080604083850312156127a657600080fd5b600083013567ffffffffffffffff8111156127c057600080fd5b6127cc858286016126ea565b92505060206127dd858286016126d5565b9150509250929050565b6000602082840312156127f957600080fd5b600061280784828501612714565b91505092915050565b6000806040838503121561282357600080fd5b600061283185828601612714565b9250506020612842858286016126d5565b9150509250929050565b6000806040838503121561285f57600080fd5b600061286d85828601612714565b925050602083013567ffffffffffffffff81111561288a57600080fd5b612896858286016126ea565b9150509250929050565b600080604083850312156128b357600080fd5b60006128c185828601612714565b92505060206128d285828601612714565b9150509250929050565b6128e5816130e0565b82525050565b6128f4816130f2565b82525050565b600061290582612faf565b61290f8185612fba565b935061291f818560208601613137565b612928816132d2565b840191505092915050565b6000612940602b83612fba565b915061294b826132e3565b604082019050919050565b6000612963602883612fba565b915061296e82613332565b604082019050919050565b6000612986601583612fba565b915061299182613381565b602082019050919050565b60006129a9601683612fba565b91506129b4826133aa565b602082019050919050565b60006129cc602383612fba565b91506129d7826133d3565b604082019050919050565b60006129ef601583612fba565b91506129fa82613422565b602082019050919050565b6000612a12601b83612fba565b9150612a1d8261344b565b602082019050919050565b6000612a35601783612fba565b9150612a4082613474565b602082019050919050565b6000612a58601e83612fba565b9150612a638261349d565b602082019050919050565b6000612a7b603983612fba565b9150612a86826134c6565b604082019050919050565b6000612a9e602c83612fba565b9150612aa982613515565b604082019050919050565b6000612ac1601883612fba565b9150612acc82613564565b602082019050919050565b6000612ae4602683612fba565b9150612aef8261358d565b604082019050919050565b6000612b07601e83612fba565b9150612b12826135dc565b602082019050919050565b6000612b2a601c83612fba565b9150612b3582613605565b602082019050919050565b6000612b4d602b83612fba565b9150612b588261362e565b604082019050919050565b6000612b70602d83612fba565b9150612b7b8261367d565b604082019050919050565b6000612b93601d83612fba565b9150612b9e826136cc565b602082019050919050565b6000612bb6601483612fba565b9150612bc1826136f5565b602082019050919050565b6000612bd9602683612fba565b9150612be48261371e565b604082019050919050565b612bf88161311e565b82525050565b6000602082019050612c1360008301846128dc565b92915050565b6000602082019050612c2e60008301846128eb565b92915050565b60006020820190508181036000830152612c4e81846128fa565b905092915050565b60006020820190508181036000830152612c6f81612933565b9050919050565b60006020820190508181036000830152612c8f81612956565b9050919050565b60006020820190508181036000830152612caf81612979565b9050919050565b60006020820190508181036000830152612ccf8161299c565b9050919050565b60006020820190508181036000830152612cef816129bf565b9050919050565b60006020820190508181036000830152612d0f816129e2565b9050919050565b60006020820190508181036000830152612d2f81612a05565b9050919050565b60006020820190508181036000830152612d4f81612a28565b9050919050565b60006020820190508181036000830152612d6f81612a4b565b9050919050565b60006020820190508181036000830152612d8f81612a6e565b9050919050565b60006020820190508181036000830152612daf81612a91565b9050919050565b60006020820190508181036000830152612dcf81612ab4565b9050919050565b60006020820190508181036000830152612def81612ad7565b9050919050565b60006020820190508181036000830152612e0f81612afa565b9050919050565b60006020820190508181036000830152612e2f81612b1d565b9050919050565b60006020820190508181036000830152612e4f81612b40565b9050919050565b60006020820190508181036000830152612e6f81612b63565b9050919050565b60006020820190508181036000830152612e8f81612b86565b9050919050565b60006020820190508181036000830152612eaf81612ba9565b9050919050565b60006020820190508181036000830152612ecf81612bcc565b9050919050565b6000602082019050612eeb6000830184612bef565b92915050565b600060c082019050612f066000830189612bef565b8181036020830152612f1881886128fa565b9050612f276040830187612bef565b612f3460608301866128eb565b612f4160808301856128dc565b612f4e60a08301846128dc565b979650505050505050565b6000612f63612f74565b9050612f6f828261319c565b919050565b6000604051905090565b600067ffffffffffffffff821115612f9957612f986132a3565b5b612fa2826132d2565b9050602081019050919050565b600081519050919050565b600082825260208201905092915050565b6000612fd68261311e565b9150612fe18361311e565b9250827fffffffffffffffffffffffffffffffffffffffffffffffffffffffffffffffff0382111561301657613015613216565b5b828201905092915050565b600061302c8261311e565b91506130378361311e565b92508261304757613046613245565b5b828204905092915050565b600061305d8261311e565b91506130688361311e565b9250817fffffffffffffffffffffffffffffffffffffffffffffffffffffffffffffffff04831182151516156130a1576130a0613216565b5b828202905092915050565b60006130b78261311e565b91506130c28361311e565b9250828210156130d5576130d4613216565b5b828203905092915050565b60006130eb826130fe565b9050919050565b60008115159050919050565b600073ffffffffffffffffffffffffffffffffffffffff82169050919050565b6000819050919050565b82818337600083830152505050565b60005b8381101561315557808201518184015260208101905061313a565b83811115613164576000848401525b50505050565b6000600282049050600182168061318257607f821691505b6020821081141561319657613195613274565b5b50919050565b6131a5826132d2565b810181811067ffffffffffffffff821117156131c4576131c36132a3565b5b80604052505050565b60006131d88261311e565b91507fffffffffffffffffffffffffffffffffffffffffffffffffffffffffffffffff82141561320b5761320a613216565b5b600182019050919050565b7f4e487b7100000000000000000000000000000000000000000000000000000000600052601160045260246000fd5b7f4e487b7100000000000000000000000000000000000000000000000000000000600052601260045260246000fd5b7f4e487b7100000000000000000000000000000000000000000000000000000000600052602260045260246000fd5b7f4e487b7100000000000000000000000000000000000000000000000000000000600052604160045260246000fd5b6000601f19601f8301169050919050565b7f446f6e6174696f6e206665652073686f756c6420626520736d616c6c6572207460008201527f68616e2031303020282529000000000000000000000000000000000000000000602082015250565b7f5468657265206973206e6f207072697a6520706f6f6c20666f7220746869732060008201527f63616d706169676e000000000000000000000000000000000000000000000000602082015250565b7f43616d706169676e2069732066696e6973686564210000000000000000000000600082015250565b7f43616e64696461746520697320696e6163746976652100000000000000000000600082015250565b7f446f6e6174696f6e20697320746f6f20736d616c6c206f7220746f6f206c617260008201527f6765210000000000000000000000000000000000000000000000000000000000602082015250565b7f596f7520617265206e6f7420612077696e6e6572210000000000000000000000600082015250565b7f596f7520617265206e6f7420746869732063616e646964617465210000000000600082015250565b7f596f75206861766520616c726561647920766f74656421000000000000000000600082015250565b7f456c656374696f6e7320617265206e6f742066696e6973686564207965740000600082015250565b7f4d696e696d616c20646f6e6174696f6e2073686f756c6420626520736d616c6c60008201527f6572207468616e206d6178696d616c20646f6e6174696f6e2100000000000000602082015250565b7f596f7520617265206e6f7420746865206e6f6d696e61746f72206f662074686960008201527f732063616e646964617465210000000000000000000000000000000000000000602082015250565b7f43616e646964617465206973206e6f7420616374697665210000000000000000600082015250565b7f43616e6469646174652077697468207375636820696420646f6573206e6f742060008201527f6578697374210000000000000000000000000000000000000000000000000000602082015250565b7f43616e64696461746520697320616c726561647920696e616374697665210000600082015250565b7f43616e64696461746520697320616c7265616479206163746976652100000000600082015250565b7f546865726520617265206e6f2063616e6469646174657320666f72207468657360008201527f6520656c656374696f6e73000000000000000000000000000000000000000000602082015250565b7f5072697a6520706f6f6c206665652073686f756c6420626520736d616c6c657260008201527f207468616e203130302028252900000000000000000000000000000000000000602082015250565b7f54686973206164647265737320697320616c7265616479207573656421000000600082015250565b7f596f7520617265206e6f7420616c6c6f77656421000000000000000000000000600082015250565b7f596f75206861766520616c72656164792077697468647261776e20796f75722060008201527f66756e6473210000000000000000000000000000000000000000000000000000602082015250565b613776816130e0565b811461378157600080fd5b50565b61378d8161311e565b811461379857600080fd5b5056fea26469706673582212204a3342109b64fe70863d617fac957ab8082a6d8b6c83834f6b05bdf752592a8864736f6c63430008040033a2646970667358221220a8e4c0e034e3715e614a9db8ea9993fa3c17ccbf583ebdc41ab4ecf3014bf7a264736f6c63430008040033",
  "immutableReferences": {},
  "source": "// SPDX-License-Identifier: GPL-3.0\r\npragma solidity ^0.8.4;\r\n\r\nimport \"./Owned.sol\";\r\nimport \"./Campaign.sol\";\r\n\r\ncontract CampaignManager is Owned {\r\n\r\n    uint public fee;\r\n    uint public campaignsCount;\r\n    Campaign[] public campaigns;\r\n\r\n    constructor(uint _fee) Owned(msg.sender) {\r\n        fee = _fee;\r\n    }\r\n\r\n    function setFee(uint _fee) onlyOwner public {\r\n        fee = _fee;\r\n    }\r\n\r\n    function createCampaign(string memory _name, uint256 _dueDate, uint _donationFee, uint _prizePoolFee, uint _minDonation, uint _maxDonation) public payable {\r\n        require(msg.value >= fee, \"You should send the required\");\r\n        Campaign campaign = new Campaign(msg.sender, _name, _dueDate, _donationFee, _prizePoolFee, _minDonation, _maxDonation);\r\n        campaigns.push(campaign);\r\n        campaignsCount++;\r\n    }\r\n\r\n    function withdraw(address _address, uint _sum) onlyOwner payable public {\r\n        uint balance = address(this).balance;\r\n        require(_sum <= balance, \"Insufficient funds!\");\r\n        require(balance > 0, \"Nothing to withdraw!\");\r\n        address payable to = payable(_address);\r\n\r\n        to.transfer(_sum);\r\n    }\r\n}",
  "sourcePath": "C:/Users/antons/Desktop/Other/Projects/CampaignManagerDAO/contracts/CampaignManager.sol",
  "compiler": {
    "name": "solc",
    "version": "0.8.4+commit.c7e474f2.Emscripten.clang"
  },
  "schemaVersion": "3.3.4",
  "updatedAt": "2021-05-04T19:28:43.314Z",
  "networkType": "ethereum",
  "devdoc": {
    "kind": "dev",
    "methods": {},
    "version": 1
  },
  "userdoc": {
    "kind": "user",
    "methods": {},
    "version": 1
  }
}